:020000040800F2
:1000000050080020D5010008410800087D070008BD
:100010008107000889040008F918000800000000A2
:10002000000000000000000000000000510A00086D
:100030008D04000800000000C90800080D0C00082D
:10004000EF010008EF010008EF010008EF010008D0
:10005000EF010008EF010008EF010008EF010008C0
:10006000EF010008EF010008EF010008EF010008B0
:10007000EF010008EF010008EF010008EF010008A0
:10008000EF010008EF010008EF010008EF01000890
:10009000EF010008EF010008EF0100083D0500082E
:1000A000EF010008EF010008EF010008EF01000870
:1000B000EF010008B10E000859100008EF01000818
:1000C000EF010008EF010008EF010008EF01000850
:1000D000EF0100085D150008E5150008411600084D
:1000E000EF010008EF010008EF010008EF01000830
:1000F000EF010008EF010008EF010008EF01000820
:10010000EF010008EF010008EF010008EF0100080F
:10011000EF010008EF010008EF010008EF010008FF
:10012000EF010008EF010008EF010008EF010008EF
:1001300000F002F800F03FF80AA090E8000C8244BA
:100140008344AAF10107DA4501D100F034F8AFF297
:10015000090EBAE80F0013F0010F18BFFB1A43F0A5
:1001600001031847E021000000220000103A24BFDC
:1001700078C878C1FAD8520724BF30C830C144BF0C
:1001800004680C607047000000230024002500264E
:10019000103A28BF78C1FBD8520728BF30C148BFEA
:1001A0000B607047642900F07780002070471FB50E
:1001B0001FBD10B510BD00F037F91146FFF7F7FF6E
:1001C00001F048FC00F055F903B4FFF7F2FF03BC5F
:1001D00001F0C0FB0948804709480047FEE7FEE7F9
:1001E000FEE7FEE7FEE7FEE7FEE7FEE7FEE7FEE7E7
:1001F00004480549054A064B70470000110C0008E9
:100200003101000850020020500800205004002056
:1002100050040020704700000FB4044910B503AA31
:10022000029800F0D3F810BC5DF814FB1800002011
:100230002DE9F0410E460446002020622046E16888
:10024000884730B3252805D0D4E901219047206A9A
:10025000401CF2E7E168204600278847050018D0D7
:10026000A5F14100192802D820354FF40067324625
:10027000294620462760FFF795FF40B1012804D0AA
:10028000F61D26F007060836D8E7361DD6E72846BD
:10029000DAE7206ABDE8F0812DE9F0410646002446
:1002A00010687529314616A510D0AFF300800028DC
:1002B00002DA404213A507E031688A0701D512A58A
:1002C00002E0490704D511A5012401E0AFF3008045
:1002D00000210A2206F1240709E0B0FBF2FCB0FB82
:1002E000F2F302FB1C00303078541846491C0028F9
:1002F000F3D123462A463046BDE8F04100F00CB861
:10030000000000002D0000002B0000002000000075
:1003100070477047704770472DE9F0470D46994682
:100320009246044600F124080168880604D5E06975
:1003300021F01001216000E00120A84201DD471BEF
:1003400000E00027A1697A1902EB0900081AA061F0
:100350002078C00602D42046AFF30080002608E0D3
:10036000D4E901211AF806009047206A401C761C47
:1003700020624E45F4DB2078C0060AD52046AFF354
:10038000008006E0D4E9012130209047206A401C1B
:100390002062381EA7F10107F4DC07E0D4E901214F
:1003A00018F805009047206A401C2062281EA5F11D
:1003B0000105F3DC2046AFF300802078000602D56B
:1003C0000220BDE8F0870120FBE70000074B70B575
:1003D0000D467B4400F011F80446284600F020F852
:1003E00010B14FF0FF3070BD204670BD63160000A5
:1003F00001694A1C02610878704700B58FB0CDE9E9
:1004000001310021059105497944CDE903101146D8
:100410006846FFF70DFF0FB000BD0000E5FFFFFFCE
:10042000007B00F080007047754600F029F8AE466A
:1004300005006946534620F00700854618B020B5F0
:10044000FFF7D6FEBDE820404FF000064FF0000752
:100450004FF000084FF0000B21F00701AC46ACE86C
:10046000C009ACE8C009ACE8C009ACE8C0098D46D9
:1004700070470446AFF300802046FFF7A5FE00005A
:1004800000487047F001002000BFFEE77047000001
:1004900010B586B004460121092000F05FFA012161
:1004A000880400F04BFA4FF48060ADF8140003208C
:1004B0008DF8160018208DF8170005A91D4800F0CA
:1004C000C3F84FF40060ADF8140003208DF8160057
:1004D00004208DF8170005A9164800F0B5F827206C
:1004E0008DF8000003208DF801008DF80200012036
:1004F0008DF80300684600F0A5F901940020ADF8DE
:100500000800ADF80A00ADF80C00ADF810000C20A2
:10051000ADF80E0001A9084801F018F9012240F2D7
:100520002551054801F0ECF80121034801F0A5F838
:1005300006B010BD000C01400048004010B50A2074
:1005400001F02EFA4021064800F009F9012802D1F5
:10055000002004490870402000F006F810BD00009B
:1005600000200140FD0000200149086070470000A4
:1005700014040140002123498279002A3AD00A4616
:10058000126803689A430B461A600A1D12680368D2
:100590009A430B1D1A60027911440A6803681A43D2
:1005A0000A60184A0832126803689A43154B0833E8
:1005B0001A601A1D126803689A43124B0C331A60B2
:1005C0004279102A0ED11A1F126803681A430D4B84
:1005D00008331A601A1D126803681A43094B0C335A
:1005E0001A600DE00749427911440A6803681A430A
:1005F0000A6005E0027911440A6803689A430A60B8
:10060000704700000004014030B500228B071C0F2A
:100610000F2303FA04F20B4B8C1053F8243093434E
:10062000084C8D1044F8253023468C1053F82430A4
:100630008C07240F00FA04F42343024C8D1044F875
:10064000253030BD080001402DE9F041024600256B
:100650000026002000230024002791F803C00CF09E
:100660000F0591F803C00CF0100CBCF1000F03D083
:1006700091F802C04CEA050591F800C0BCF1000FEA
:1006800031D0146800202BE04FF0010C0CFA00F37D
:10069000B1F800C00CEA03069E4220D183004FF05F
:1006A0000F0C0CFA03F7BC4305FA03FC4CEA0404F4
:1006B00091F803C0BCF1280F06D14FF0010C0CFAE1
:1006C00000FCC2F814C00AE091F803C0BCF1480F66
:1006D00005D14FF0010C0CFA00FCC2F810C0401C10
:1006E0000828D1D31460B1F800C0BCF1FF0F34DD8D
:1006F000546800202EE000F1080C4FF0010808FAC1
:100700000CF3B1F800C00CEA03069E4221D183002D
:100710004FF00F0C0CFA03F7BC4305FA03FC4CEA4C
:10072000040491F803C0BCF1280F05D100F1080CB6
:1007300008FA0CF8C2F8148091F803C0BCF1480F15
:1007400007D100F1080C4FF0010808FA0CF8C2F8C4
:100750001080401C0828CED35460BDE8F0810246CA
:10076000002093680B400BB1012000E0002070478F
:100770004161704701617047C160704700BFFEE78B
:1007800000BFFEE708B501214FF4B07000F0E6F8B5
:1007900042F60130ADF8000010208DF80300032070
:1007A0008DF8020069462348FFF74EFF4FF4E04002
:1007B000ADF8000010208DF8030003208DF8020032
:1007C00069461D48FFF740FF4FF42850ADF8000080
:1007D00010208DF8030003208DF8020069461748A9
:1007E000FFF732FF4FF400511348FFF7C1FF01211B
:1007F0001048FFF7BDFF4FF480410F48FFF7B8FFE7
:100800004FF480510C48FFF7B3FF4FF400610948E3
:10081000FFF7AEFF4FF400510648FFF7A9FF4FF472
:1008200080710448FFF7A4FF4FF400710148FFF7FF
:100830009FFF08BD00180140002001400014014046
:100840007047000070B5002100230F22C47804B364
:10085000154C246804F4E064C4F5E064210AC1F195
:100860000403CA40447804FA03F184781440214315
:1008700009010E4C0678A155047804F01F050124E7
:10088000AC4005786D11AD0005F1E025C5F80041DB
:1008900009E0047804F01F050124AC40044D0678FB
:1008A000761145F8264070BD0CED00E000E400E054
:1008B00080E100E002490143024A116070470000F4
:1008C0000000FA050CED00E0704700001FB50121A3
:1008D00040F2011000F042F84020ADF80C00282052
:1008E0008DF80F0003208DF80E0003A91248FFF7C2
:1008F000ABFE06210846FFF787FE4020019000204E
:100900008DF8080008208DF8090001208DF80A00F4
:1009100001A8FFF72FFE17208DF8000002208DF8A8
:10092000010003208DF8020001208DF803006846C5
:10093000FFF788FF1FBD00000020014029B1064AD3
:10094000D2690243044BDA6104E0034AD26982436C
:10095000014BDA61704700000010024029B1064ADD
:1009600092690243044B9A6104E0034A926982430C
:10097000014B9A61704700000010024030B5002121
:100980000022002400232D4D6D6805F00C0121B1DB
:10099000042905D0082923D105E0294D056022E06E
:1009A000274D05601FE0254D6D6805F47012234D3D
:1009B0006D6805F48034022505EB92421CB9214D87
:1009C000554305600BE01D4D6D6805F400351DB104
:1009D0001C4D5543056002E0194D5543056002E08A
:1009E000174D056000BF00BF144D6D6805F0F001A4
:1009F0000909154D6B5C0568DD4045600F4D6D685C
:100A000005F4E061090A104D6B5C4568DD408560C6
:100A10000A4D6D6805F46051C90A0B4D6B5C456861
:100A2000DD40C560054D6D6805F44041890B074DFB
:100A30006B5CC568B5FBF3F5056130BD0010024085
:100A400000127A0000093D001E0000202E00002048
:100A50007047000010B586B0044601210520FFF75D
:100A60007DFF01214804FFF769FF0420ADF8140061
:100A700003208DF8160018208DF8170005A91D48D1
:100A8000FFF7E2FD0820ADF8140003208DF81600F2
:100A900004208DF8170005A91648FFF7D5FD26207C
:100AA0008DF8000000208DF801008DF80200012073
:100AB0008DF803006846FFF7C5FE01940020ADF8ED
:100AC0000800ADF80A00ADF80C00ADF810000C20DD
:100AD000ADF80E0001A9084800F038FE012240F2EE
:100AE0002551054800F00CFE0121034800F0C5FD2A
:100AF00006B010BD000801400044004010B500F0F1
:100B000001F810BD0CB5002001900090334800683A
:100B100040F480303149086000BF3048006800F47C
:100B2000003000900198401C0190009818B901987D
:100B3000B0F5A06FF1D12948006800F4003010B181
:100B40000120009001E0002000900098012843D18E
:100B50002348006840F010002149086008460068FA
:100B600020F0030008600846006840F002000860BA
:100B70001A48406819494860084640684860084675
:100B8000406840F4806048600846406820F47C106B
:100B900048600846406840F4E8104860084600682D
:100BA00040F08070086000BF0C48006800F00070E2
:100BB0000028F9D00948406820F003000749486040
:100BC0000846406840F00200486000BF03484068A3
:100BD00000F00C000828F9D10CBD00000010024004
:100BE00000200240042808D14FF0E021096941F0BB
:100BF00004014FF0E022116107E04FF0E0210969A4
:100C000021F004014FF0E0221161704770470000AD
:100C100010B51348006840F001001149086008460B
:100C20004068104908400E494860084600680E496F
:100C300008400B4908600846006820F480200860DE
:100C40000846406820F4FE0048604FF41F008860AA
:100C5000FFF754FF4FF000600449086010BD00002A
:100C6000001002400000FFF8FFFFF6FE08ED00E074
:100C7000F0B50C46154600220021068C4FF6FE7793
:100C80003E400684028B018C4FF60C7632407E1C6F
:100C900006EA03162E433243104EB0420ED0104ED9
:100CA000B0420BD0B0F1804F08D00E4EB04205D00C
:100CB0000D4EB04202D00D4EB04206D14FF6FD7639
:100CC000314044F00106314305E04FF6F5763140FE
:100CD00044F00106314302830184F0BD002C014041
:100CE000003401400004004000080040000C0040B7
:100CF000F0B50C461546002200210026078C4FF661
:100D0000EF7C07EA0C070784028B018C4FF6FF7714
:100D100007EA041640F6FF473A404FF6FF7707EA26
:100D200003373A434FF6FF7707EA05273A43114F57
:100D3000B8420ED0104FB8420BD0B0F1804F08D05F
:100D40000E4FB84205D00E4FB84202D00D4FB842F8
:100D500006D14FF6DF77394046F01007394305E0FA
:100D60004FF65F77394044F010073943028301841E
:100D7000F0BD0000002C01400034014000040040A0
:100D800000080040000C0040F0B50C46154600225B
:100D900000210026078C4FF6FF6C07EA0C0707843A
:100DA000828B018C4FF6FF7707EA04264FF60C770B
:100DB0003A404FF6FF7707EA03172F433A43114FA4
:100DC000B8420ED0104FB8420BD0B0F1804F08D0CF
:100DD0000E4FB84205D00E4FB84202D00D4FB84268
:100DE00006D14FF6FF57394046F48077394305E086
:100DF0004FF2FF57394044F48077394382830184AE
:100E0000F0BD0000002C014000340140000400400F
:100E100000080040000C0040F0B50C4615460022CA
:100E200000210026078C4EF6FF7C07EA0C0707849A
:100E3000828B018C4FF6FF7707EA043640F6FF47B6
:100E40003A404FF6FF7707EA05273A434FF6FF7718
:100E500007EA03373A43114FB8420ED0104FB84259
:100E60000BD0B0F1804F08D00E4FB84205D00E4FD6
:100E7000B84202D00D4FB84206D14DF6FF77394047
:100E800046F48057394305E047F6FF57394044F4AC
:100E90008057394382830184F0BD0000002C01405B
:100EA000003401400004004000080040000C0040F5
:100EB00010B50121174800F02FFA28B31649086829
:100EC000C11700EB91718910A0EB810131B10129AB
:100ED00008D002290AD0032910D10BE0012000F02C
:100EE000CDFC0BE0022000F0C9FC07E0042000F07C
:100EF000C5FC03E0082000F0C1FC00BF00BF0648AD
:100F00000068401C044908600121024800F0E8F92B
:100F100010BD0000000400404000002030B585B046
:100F200005460C4601210420FFF708FD0121082099
:100F3000FFF714FD4FF47070ADF8100028208DF805
:100F4000130004A94148FFF77FFB40213F48FFF70A
:100F50000FFC80213D48FFF70BFC4FF480713B48AC
:100F6000FFF706FC4FF400713848FFF701FCADF8BD
:100F70000850ADF804400020ADF80A00ADF80600B6
:100F800001A9334800F098FA0020324908804880CF
:100F9000012088800020C88008812D4800F0CEF90B
:100FA000012202212A4800F01FFA04202949088062
:100FB00000204880012088800020C88008812448C3
:100FC00000F0BCF901220421214800F00DFA0820AC
:100FD0002049088000204880012088800020C880A7
:100FE00008811B4800F0AAF901220821184800F0E6
:100FF000FBF90C20174908800020488001208880D8
:101000000020C8800881124800F098F901221021C0
:101010000F4800F0E9F91E208DF8000002208DF83D
:10102000010000208DF8020001208DF803006846C1
:10103000FFF708FC01221146054800F0D5F901210F
:10104000034800F050F905B030BD0000000C01402D
:1010500000080040C80100202DE9F0470121984810
:1010600000F05AF90221964800F056F9002843D0C2
:101070009448407800F0400058B3914800F03FF9A0
:101080009149488000218E4800F0B7F900208D4931
:1010900048708D49488800F017FF804600228B4B2E
:1010A00000F026FF06460022894B00F0B5FD0446FD
:1010B00000F080FD874948604868874901F016F8CC
:1010C000044601F0D5F88549487000207E494880E3
:1010D00012E000217A4800F0C0F9002079494870F8
:1010E0000846407840F0400048700020764948802B
:1010F0000221734800F081F90421714800F00CF9D5
:10110000002843D06F48807800F0400058B36C4806
:1011100000F0F8F86C4988800021694800F076F901
:101120000020684988706849888800F0CDFE8046B4
:101130000022664B00F0DCFE06460022644B00F005
:101140006BFD044600F036FD62498860886862499C
:1011500000F0CCFF044601F08BF860498870002055
:101160005949888012E00021554800F076F90020A6
:10117000544988700846807840F04000887000200C
:101180005149888002214E4800F040F908214C481E
:1011900000F0C2F8002843D04A48C07800F0400070
:1011A00058B3474800F0B1F84749C8800021444887
:1011B00000F039F900204349C8704349C88800F05D
:1011C00083FE06460022414B00F092FE04460022B8
:1011D0003F4B00F021FD804600F0ECFC3D49C8602B
:1011E000C8683D4900F082FF044601F041F83B49E0
:1011F000C87000203449C88012E00021304800F057
:101200002CF900202F49C8700846C07840F04000F3
:10121000C87000202C49C8800221294800F003F939
:101220001021274800F078F8002843D0254800799D
:1012300000F0400058B3224800F06AF822490881C3
:1012400000211F4800F0FCF800201E4908711E49CB
:10125000088900F039FE064600221C4B00F048FECB
:10126000044600221A4B00F0D7FC804600F0A2FC96
:10127000184908610869184900F038FF044600F071
:10128000F7FF1649087100200F49088112E000217C
:101290000B4800F0E2F800200A490871084600797E
:1012A00040F04000087100200749088102210448ED
:1012B00000F0C6F81F21024800F012F8BDE8F087E0
:1012C0000008004035000020D2010020000041400D
:1012D00000409F40DC010020000020413A00002037
:1012E000CA430282704721B1028842F001020280A3
:1012F00004E002884FF6FE731A40028070470146F0
:10130000888E70470146088F70470146888F704766
:101310000146B1F84000704730B502460020002376
:101320000024158A05EA0103958905EA010413B131
:101330000CB1012000E0002030BD000070B5054672
:101340000C46244885420ED0234885420BD0B5F187
:10135000804F08D02148854205D02148854202D0DF
:101360002048854200D100E000BF208850B9238981
:10137000A28861882846FFF77BFCE188284600F0B8
:101380006EF825E0208804280AD12389A288618884
:101390002846FFF7ADFCE188284600F069F817E021
:1013A000208808280AD12389A28861882846FFF767
:1013B000EBFCE188284600F068F809E02389A28860
:1013C00061882846FFF728FDE188284600F066F886
:1013D00070BD0000002C01400034014000040040BA
:1013E00000080040000C00401AB183890B43838140
:1013F00002E083898B43838170470A460021018C78
:101400004FF6FD7319401143018470470A460021CD
:10141000018C4FF6DF7319404FF6FF7303EA021396
:101420001943018470470A460021018C4FF6FF538F
:1014300019404FF6FF7303EA0223194301847047F2
:101440000A460021018C4DF6FF7319404FF6FF73D9
:1014500003EA023319430184704781847047028B89
:101460004FF6F3731A400283028B0A4302837047DC
:10147000028B4FF2FF331A400283028B4FF6FF7349
:1014800003EA01231A4302837047828B4FF6F373FA
:101490001A408283828B0A4382837047828B4FF289
:1014A000FF331A408283828B4FF6FF7303EA0123D6
:1014B0001A43828370470000002202881D4B984225
:1014C0000ED01D4B98420BD0B0F1804F08D01B4B73
:1014D000984205D01A4B984202D01A4B984204D138
:1014E0004FF68F731A404B881A43174B984207D018
:1014F000164B984204D04FF6FF431A40CB881A434C
:1015000002808B8883850B8803850A4B98420BD019
:10151000094B984208D00E4B984205D00D4B98428B
:1015200002D00D4B984201D10B7A038601238382AE
:1015300070470000002C01400034014000040040CE
:1015400000080040000C0040001000400014004063
:1015500000400140004401400048014010B540F205
:1015600025511D4800F0A2F810B31B4800F05AF9AD
:10157000C4B21A48008800F40040C8B9174800886F
:1015800000F4804060B10A2C03D000201349088089
:1015900020E01248008840F400401049088019E01B
:1015A0000D2C06D10D48008840F480400B4908807E
:1015B00010E00A480088C0F30D0009490C540748A0
:1015C0000088401C0549088008460088C72801DDBE
:1015D0000020088010BD0000003801401C000020E1
:1015E0000001002010B52021104800F052F8E0B1B1
:1015F00040F225510D4800F031F80C4800F012F986
:10160000C4B20A2C08D00A4801780078401C084A65
:1016100010700848445408E0012007490870002071
:101620000349087002200549087010BD00440040BD
:10163000FB00002044000020FC000020FD000020F2
:1016400010B52021044800F024F820B140F22551C3
:10165000014800F003F810BD0048004010B500221A
:10166000002340F66A14A14200D100BF0A120124EF
:101670009440A3B2DC43048010BD21B1828942F4BE
:101680000052828104E082894DF6FF731A40828104
:10169000704702460020B1F5007F00D100BF1388DB
:1016A0000B400BB1012000E00020704770B50246EE
:1016B000002400230025002040F66A16B14200D124
:1016C00000BFC1F3421501F01F03012606FA03F320
:1016D000012D02D19689334006E0022D02D1168AEF
:1016E000334001E0968A33400C12012606FA04F4D6
:1016F0001688344013B10CB1012000E0002070BD09
:10170000F0B50346002400260025002040F66A17A5
:10171000B94200D100BF1846C1F3421401F01F06C0
:10172000012707FA06F5012C01D10C3004E0022C48
:1017300001D1103000E014301AB107682F43076060
:1017400002E00768AF430760F0BD00002DE9F047F5
:1017500086B005460E460024A24600BFA1460027DB
:10176000B08900B100BF2F462C8A4CF6FF700440B0
:10177000F08804432C82AC894EF6F3100440B08804
:1017800031890843718908430443AC81AC8A4FF620
:10179000FF400440B0890443AC8201A8FFF7EEF893
:1017A0001F48874202D1DDF810A001E0DDF80CA04F
:1017B000A88900F4004040B10AEBCA0000EB0A100F
:1017C00031684900B0FBF1F807E00AEBCA0000EB12
:1017D0000A1031688900B0FBF1F86420B8FBF0F022
:1017E00004012009642101FB1089A88900F400404C
:1017F00040B1322000EBC900B0FBF1F000F007006F
:10180000044308E0322000EB09106421B0FBF1F042
:1018100000F00F0004432C8106B0BDE8F087000003
:101820000038014001468888C0F308007047000076
:1018300008B501211020FFF791F80F20ADF8000046
:1018400010208DF8030003208DF8020069460A4835
:10185000FEF7FAFE01210848FEF78AFF022106483A
:10186000FEF786FF04210448FEF782FF08210248A4
:10187000FEF77EFF08BD00000010014010B50446D1
:1018800021460548FEF776FF1E2000F0AFF82146FE
:101890000148FEF76DFF10BD001001407FB5054601
:1018A0000C4601210220FFF749F8ADF80850ADF8C9
:1018B00004400020ADF80A00ADF8060001A90D486B
:1018C000FFF7FAFD012211460A48FFF78DFD1D20A2
:1018D0008DF8000003208DF801008DF80200012032
:1018E0008DF803006846FEF7ADFF01210148FFF7C0
:1018F000FAFC7FBD0004004000BFFEE708B50121EF
:101900002020FFF72BF8FF20ADF8000010208DF805
:10191000030003208DF8020069460448FEF794FE98
:10192000FF210248FEF728FF08BD00000014014017
:1019300070B5044684F0FF0529460548FEF71CFFF4
:10194000142000F02DF8FF210148FEF715FF70BDAF
:1019500000140140014600BF7047000010B56FF051
:101960000400FFF73FF90A4800680A49B0FBF1F0AC
:10197000094908700846007800EB4001C1EBC0102F
:101980004FF6FF7101EAC0000449088010BD000055
:101990000000002000127A00140000201600002031
:1019A0000146114A12884A434FF0E0235A6100224F
:1019B0009A611A46126942F001021A6100BF4FF0A3
:1019C000E022106900F001021AB100F48032002A0E
:1019D000F5D04FF0E022126922F001024FF0E0232F
:1019E0001A6100229A617047160000200146114AD0
:1019F00012784A434FF0E0235A6100229A611A4656
:101A0000126942F001021A6100BF4FF0E022106932
:101A100000F001021AB100F48032002AF5D04FF034
:101A2000E022126922F001024FF0E0231A61002245
:101A30009A6170471400002000BF054A128802F026
:101A40004002002AF9D0C2B2014B1B1D1A80704718
:101A50000038014008B54FF4A060FEF72BFFFFF7F8
:101A60007DFF4FF4E13000F055F84FF4E130FEF720
:101A70000FFD4FF41650FEF7EDFF47214FF6FF70B4
:101A8000FFF74CFA40F2CF2146F2A710FFF706FF0E
:101A9000FFF7CEFE1648C07800901548837842784C
:101AA000017814A0FEF7B8FBFEF76CFEFFF726FFE7
:101AB000FEF70CFF1AE015480078012805D1FFF762
:101AC00037FF64201149087000E000BF104800781B
:101AD00060B10748C0780090054883784278017863
:101AE00004A0FEF799FB002009490870E3E7000015
:101AF00044000020496E666F3A2564202C2564203E
:101B00002C2564202C25640D0A000000FD00002017
:101B1000FC00002010B586B00446012144F2040008
:101B2000FEF71CFF4FF40070ADF8140003208DF891
:101B3000160018208DF8170005A91C48FEF784FD33
:101B40004FF48060ADF8140004208DF8170005A94B
:101B50001648FEF779FD25208DF8000003208DF84A
:101B600001008DF8020001208DF803006846FEF7A1
:101B700069FE01940020ADF80800ADF80A00ADF848
:101B80000C00ADF810000C20ADF80E0001A90848BB
:101B9000FFF7DCFD012240F225510548FFF7B0FDBB
:101BA00001210348FFF769FD06B010BD00080140A0
:101BB0000038014021F00042A2F16052B2F5801FCE
:101BC00001F0004328BFD2F17F6C0BD95FEA001C03
:101BD00043EAC20242EB507018BF704728BF20F0A2
:101BE00001007047B2F5801FBCBF184670474FEA2E
:101BF000410C1CF5001F02D2084600F09EBB70B5D8
:101C000000F020FA00000089FFF7F6BF4FF0004017
:101C1000A0F58000704700002DE9C04130B4DFF826
:101C2000A0C23CEA111418BF3CEA131400F0EC8087
:101C300081EA03051CEA111444EAD57418BF1CEAB2
:101C4000131500F0C780A4EB05044FF0004545EAEA
:101C5000C12145EAC32341EA505143EA525304F1FA
:101C60007F74994204F500344FEAC0204FEAC22243
:101C700008BF904200F09C804FEA13650FF24016B7
:101C8000765D4FEA134506FB05F7C7F1807706FB43
:101C900007F74FEAD737A7FB03687642C8F58038C5
:101CA000A7FB06CE38BFA8F1010807FB08E64FF0F6
:101CB000000EA6FB028CE6FB03CEDCF1000CCEF19D
:101CC000004E38BFAEF1010EA6FB0C584FF00007D6
:101CD0004FF00005E6FB0E87A1FB08C6A0FB07CE70
:101CE00016EB0E0645F10005E1FB076515F1E04E28
:101CF0007EBFA4F580345FEA46066D4116F1800789
:101D000045F100054FEA17274FEA066647EA0567DF
:101D1000A6F1DE46B6F1805F4FEA15251FD9384699
:101D200024F0010C05EBC471BCF1FE6F01EB0C114A
:101D300002D8F0BCBDE8008124425CBF01F5801EE2
:101D40009EEAC47F02D4F0BCBDE80081244238D4AE
:101D5000F0BCA1F1C041BDE8004100F0C1B94FEABB
:101D6000D22242EA43524FEAD323A7FB02864FEA2C
:101D7000D02040EA415007FB03661EEA0E0F4FEAEF
:101D8000D12105FB026658BFA6EB0056B6EB005604
:101D90004FEA520E4EEAC37E18EB0E0E56EB530E70
:101DA000BDD518EB02085E417F1C55F10005B6E772
:101DB0004FF480154FF000074FF000064FF0000879
:101DC000ADE7F0BC4FF0000001F1C04101F000416F
:101DD000BDE8008111EA0C1F0CEA131500D00CE0DD
:101DE00013EA0C1F00F025804FF00000F0BC81EAE0
:101DF000030101F00041BDE80081F0BCBDE80041F5
:101E000081EA030100F06CB9F0BCBDE8004170B597
:101E100000F018F9097EFC3E00F007B881EA0301E2
:101E20004FF0000001F00041704781EA030100F02B
:101E300057B9F0BCBDE800414FF0000021497047A0
:101E4000FFFDFBF9F7F5F4F2F0EEEDEBE9E8E6E47F
:101E5000E3E1E0DEDDDBDAD8D7D5D4D3D1D0CFCD06
:101E6000CCCBCAC8C7C6C5C4C2C1C0BFBEBDBCBB3F
:101E7000BAB9B8B7B6B5B4B3B2B1B0AFAEADACAB3A
:101E8000AAA9A8A8A7A6A5A4A3A3A2A1A09F9F9E14
:101E90009D9C9C9B9A9999989797969595949393C6
:101EA000929191908F8F8E8E8D8C8C8B8B8A89895D
:101EB00088888787868585848483838282818180E0
:101EC0000000FF070000F87FB0FA80F310FA03F17A
:101ED0000AD0C3F11D0303F580634FEA41504FEA76
:101EE000035202EBD12170474FF000007047000011
:101EF000DFF848C170B51CEA111E1EBF1CEA13159D
:101F00009EEA0C0F95EA0C0F00F06F8081EA030443
:101F100023EA4C134EEAD47E21EA4C1141F480119D
:101F200043F48013AE44A1FB024CA0FB0365AEF169
:101F30007F7E361955EB0C05A1FB034C4CF10003D9
:101F4000A0FB021C16EB0C06654153F1000309428D
:101F500018BF46F0010613F4007F0BD14FEA03319E
:101F60004FEA0530340341EA155140EA16506FF04C
:101F700003020AE04FEAC3214FEAC520F40241EA16
:101F8000555140EA56506FF0020202EB2E4201EB2F
:101F9000025585EACE710AD05FEA440C18BF24F0DE
:101FA000004450F1000041F1000120EAD47040F2F9
:101FB000FE7C624500D270BDA84214BF4FF0804441
:101FC0004FF04044002E08BF0024BEF1806FA8BF30
:101FD000A1F1C041BDE8704080F282804FF0000066
:101FE00001F1C04101F0004170479EEA0C0F0CEA7C
:101FF000131518BF95EA0C0F06D04FF0000081EAC8
:10200000030E0EF0004170BD00F01CF88900013E87
:1020100000F007B800F009B84FEA430C5FEA5C5CD7
:1020200008D081EA030100F05BB84FEA410C5FEA97
:102030005C5CF6D14FF00000014970470000FF07DB
:102040000000F87F0EF1020E2EF0030E5EF8046B16
:10205000364205D4012A43EB030515F5001F12D8BB
:10206000012841EB010C1CF5001F0CD80ED14FEAE2
:10207000D17C15F5001F0CEB4C0C0CF1020C08BFC9
:102080004CEBD37C04E04FF0080C01E04FEAD37C2A
:102090000CEB4C0526FA05F606F00706B6F1040C23
:1020A00006D20EEB860CBDE870404CF0010C604788
:1020B000DFE80CF0090B02024FF000414FF0000086
:1020C000A1F5002170BD19461046012851EB01040D
:1020D00018BFD4F5001484BF002001F0004170BD8A
:1020E0000808A0F500114FEA310170474FF47F0C4A
:1020F0001CEAD0121EBF1CEAD11392EA0C0F93EA1D
:102100000C0F00F0858090EA010F48BF42F4807206
:1021100040F4000C41F400002CF07F4120F07F409F
:1021200000B58142A2EB03020FF2081CACEB504E4B
:10213000C0F100009EF800E04FEA4E0E00FB0EFCDE
:1021400038BF49004FEA2C1C02F5FA020CFB0EF3D3
:102150004FEACE1E4FEA112C4FEAC1210EEB635E0F
:1021600042EB22420EFB0CFC4FEA1C5300FB031116
:102170004FEA112C4FEA01310EFB0CFC4FEADC4C0C
:1021800000FB0C11C14228BF09184CEB03335DF86A
:1021900004EB10EB410143EBC250B2F57C0F38BFAA
:1021A000704729D512F0F00F1CBF00F1C04000F0BD
:1021B00000407047008182838485868788898B8C64
:1021C0008D8E8F919293959697999A9C9D9FA0A2A0
:1021D000A3A5A7A8AAACAEB0B2B3B5B7B9BCBEC0F0
:1021E000C2C5C7C9CCCED1D4D7D9DCDFE2E6E9EC91
:1021F000F0F3F7FAFE0000004FEA400C0CF1807C8F
:10220000BCF17E4F28BF7047B0F1C04000F095B8D8
:1022100090EA010F0CEAD11348BF42F48072624584
:1022200038BF634507D213F47F0F16D080EA010050
:1022300000F00040704710B500F039F8097EFC3E10
:1022400000F005B880EA010000F00040704780EA25
:10225000010000F0004000F070B812F47F0F04BFDE
:102260000248704780EA010000F067B80000C07FB4
:10227000C10DD1F19E0206DB4FEA002343F000437B
:1022800023FA02F07047004207D54FEA4001B1F14E
:10229000FE4F02D24FF00000704710B500F007F873
:1022A00049922480002070476FEA200070470EF1A9
:1022B000020E2EF0030E5EF8044B244204D44FEAC3
:1022C0004102B2F17F4F11D84FEA4003B3F17F4F83
:1022D0000CD80ED14FEAD07CB2F17F4F0CEB4C0CF6
:1022E0000CF1020C08BF4CEBD17C04E04FF0080C61
:1022F00001E04FEAD17C0CEB4C0324FA03F404F028
:102300000704B4F1040C06D20EEB840CBDE81040B7
:102310004CF0010C6047DFE80CF0070802024FF0B8
:102320000040A0F5800010BD0846420018BFD2F161
:10233000807288BF00F0004010BDFF2141EAD050FC
:10234000C005704764230008000000200001000061
:102350006C01000864240008000100205007000000
:102360008801000800A24A040000000000000000EC
:102370000102030406070809000000000000000035
:10238000000000000000010203040102030406072C
:102390000809020406080000000000000000000018
:1023A00000000000000000000000000000EEB1107E
:1023B0000000000131C4EABCB631B0E0FFFCFFFF11
:1023C000EEB11000000001D0C7C6DA31FFFCFFFFFC
:1023D000EEB11000000001383025FFFCFFFFEEB128
:1023E0001000000001BFC9BBD8CAD5C0ACBBF8FF04
:1023F000FCFFFFEEB11000000001B3F8D3E0C0AC69
:10240000BBF8FFFCFFFFEEB11000000001D3D0BA13
:10241000A6C0ACBBF8FFFCFFFFEEB110000000014E
:10242000C6E4CBFBC0ACBBF8FFFCFFFFEEB1100075
:10243000000001B5B1C7B0D1A1D6D0FFFCFFFFEEBF
:10244000B11000000001D2D1C2FAFFFCFFFFEEB1D3
:102450001000000001B5C8B4FDD6D0FFFCFFFF009E
:042460000000000078
:04000005080001D519
:00000001FF
